{"contracts/p2pSmartContract.sol":{"p2pSmartContract":{"abi":[{"inputs":[{"internalType":"uint256","name":"_minimumPoolBalance","type":"uint256"},{"internalType":"uint256","name":"_platformFee","type":"uint256"},{"internalType":"uint256","name":"_baseInterestRate","type":"uint256"},{"internalType":"uint256","name":"_utilizationRateMultiplier","type":"uint256"},{"internalType":"uint256","name":"_maxUtilizationRate","type":"uint256"},{"internalType":"address","name":"_priceOracleAddress","type":"address"}],"stateMutability":"nonpayable","type":"constructor"},{"anonymous":false,"inputs":[{"indexed":false,"internalType":"uint256","name":"loanId","type":"uint256"},{"indexed":false,"internalType":"address","name":"borrower","type":"address"},{"indexed":false,"internalType":"uint256","name":"amount","type":"uint256"}],"name":"CollateralReturned","type":"event"},{"anonymous":false,"inputs":[{"indexed":false,"internalType":"uint256","name":"loanId","type":"uint256"},{"indexed":false,"internalType":"address","name":"borrower","type":"address"},{"indexed":false,"internalType":"address","name":"lender","type":"address"}],"name":"LoanDefaulted","type":"event"},{"anonymous":false,"inputs":[{"indexed":false,"internalType":"uint256","name":"loanId","type":"uint256"},{"indexed":false,"internalType":"address","name":"lender","type":"address"},{"indexed":false,"internalType":"uint256","name":"amount","type":"uint256"}],"name":"LoanFunded","type":"event"},{"anonymous":false,"inputs":[{"indexed":false,"internalType":"uint256","name":"loanId","type":"uint256"},{"indexed":false,"internalType":"address","name":"borrower","type":"address"},{"indexed":false,"internalType":"address","name":"lender","type":"address"}],"name":"LoanOnTrack","type":"event"},{"anonymous":false,"inputs":[{"indexed":false,"internalType":"uint256","name":"loanId","type":"uint256"},{"indexed":false,"internalType":"address","name":"borrower","type":"address"},{"indexed":false,"internalType":"uint256","name":"amount","type":"uint256"}],"name":"LoanRepaid","type":"event"},{"anonymous":false,"inputs":[{"indexed":false,"internalType":"uint256","name":"loanId","type":"uint256"},{"indexed":false,"internalType":"address","name":"borrower","type":"address"},{"indexed":false,"internalType":"uint256","name":"principal","type":"uint256"},{"indexed":false,"internalType":"uint256","name":"duration","type":"uint256"}],"name":"LoanRequested","type":"event"},{"inputs":[],"name":"baseInterestRate","outputs":[{"internalType":"uint256","name":"","type":"uint256"}],"stateMutability":"view","type":"function"},{"inputs":[{"internalType":"uint256","name":"loanId","type":"uint256"}],"name":"calculateTotalRepayment","outputs":[{"internalType":"uint256","name":"","type":"uint256"}],"stateMutability":"view","type":"function"},{"inputs":[{"internalType":"uint256","name":"loanId","type":"uint256"}],"name":"checkMidpoint","outputs":[],"stateMutability":"nonpayable","type":"function"},{"inputs":[{"internalType":"uint256","name":"loanId","type":"uint256"}],"name":"fundLoan","outputs":[],"stateMutability":"payable","type":"function"},{"inputs":[],"name":"liquidityBuffer","outputs":[{"internalType":"uint256","name":"","type":"uint256"}],"stateMutability":"view","type":"function"},{"inputs":[],"name":"loanCounter","outputs":[{"internalType":"uint256","name":"","type":"uint256"}],"stateMutability":"view","type":"function"},{"inputs":[{"internalType":"uint256","name":"","type":"uint256"}],"name":"loans","outputs":[{"internalType":"address","name":"borrower","type":"address"},{"internalType":"address","name":"lender","type":"address"},{"internalType":"uint256","name":"principal","type":"uint256"},{"internalType":"uint256","name":"interest","type":"uint256"},{"internalType":"uint256","name":"duration","type":"uint256"},{"internalType":"uint256","name":"startTime","type":"uint256"},{"internalType":"uint256","name":"repaidAmount","type":"uint256"},{"internalType":"uint256","name":"collateral","type":"uint256"},{"internalType":"bool","name":"isActive","type":"bool"}],"stateMutability":"view","type":"function"},{"inputs":[],"name":"maxUtilizationRate","outputs":[{"internalType":"uint256","name":"","type":"uint256"}],"stateMutability":"view","type":"function"},{"inputs":[],"name":"minimumPoolBalance","outputs":[{"internalType":"uint256","name":"","type":"uint256"}],"stateMutability":"view","type":"function"},{"inputs":[],"name":"owner","outputs":[{"internalType":"address","name":"","type":"address"}],"stateMutability":"view","type":"function"},{"inputs":[],"name":"platformFee","outputs":[{"internalType":"uint256","name":"","type":"uint256"}],"stateMutability":"view","type":"function"},{"inputs":[],"name":"priceOracleAddress","outputs":[{"internalType":"address","name":"","type":"address"}],"stateMutability":"view","type":"function"},{"inputs":[{"internalType":"uint256","name":"loanId","type":"uint256"}],"name":"repayLoan","outputs":[],"stateMutability":"payable","type":"function"},{"inputs":[{"internalType":"uint256","name":"principal","type":"uint256"},{"internalType":"uint256","name":"interest","type":"uint256"},{"internalType":"uint256","name":"duration","type":"uint256"},{"internalType":"uint256","name":"collateral","type":"uint256"}],"name":"requestLoan","outputs":[],"stateMutability":"payable","type":"function"},{"inputs":[],"name":"utilizationRateMultiplier","outputs":[{"internalType":"uint256","name":"","type":"uint256"}],"stateMutability":"view","type":"function"}],"evm":{"bytecode":{"linkReferences":{},"object":"6080604052348015600f57600080fd5b50604051610cd4380380610cd4833981016040819052602c916072565b60008054336001600160a01b031991821617909155600196909655600294909455600392909255600455600555600680549092166001600160a01b0390911617905560d4565b60008060008060008060c08789031215608a57600080fd5b86516020880151604089015160608a015160808b015160a08c0151949a50929850909650945092506001600160a01b038116811460c657600080fd5b809150509295509295509295565b610bf1806100e36000396000f3fe6080604052600436106100e85760003560e01c8063846b909a1161008a578063bb299a8b11610059578063bb299a8b1461022b578063cc3f4e2014610241578063dfcb48bd14610257578063e1ec3c681461026d57600080fd5b8063846b909a146101cf5780638da5cb5b146101e2578063ab7b1c8914610202578063afd927621461021557600080fd5b80632bc51c6d116100c65780632bc51c6d1461014e57806334d9289e146101865780635858224b1461019c578063753c7ff9146101bc57600080fd5b80630d63ee1b146100ed5780631f5ca1dc1461010f57806326232a2e14610138575b600080fd5b3480156100f957600080fd5b5061010d610108366004610adc565b610333565b005b34801561011b57600080fd5b5061012560015481565b6040519081526020015b60405180910390f35b34801561014457600080fd5b5061012560025481565b34801561015a57600080fd5b5060065461016e906001600160a01b031681565b6040516001600160a01b03909116815260200161012f565b34801561019257600080fd5b5061012560075481565b3480156101a857600080fd5b506101256101b7366004610adc565b61053d565b61010d6101ca366004610af5565b610588565b61010d6101dd366004610adc565b61071c565b3480156101ee57600080fd5b5060005461016e906001600160a01b031681565b61010d610210366004610adc565b6108a9565b34801561022157600080fd5b5061012560035481565b34801561023757600080fd5b5061012560045481565b34801561024d57600080fd5b5061012560085481565b34801561026357600080fd5b5061012560055481565b34801561027957600080fd5b506102e2610288366004610adc565b6009602052600090815260409020805460018201546002830154600384015460048501546005860154600687015460078801546008909801546001600160a01b039788169897909616969495939492939192909160ff1689565b604080516001600160a01b039a8b1681529990981660208a0152968801959095526060870193909352608086019190915260a085015260c084015260e083015215156101008201526101200161012f565b6000818152600960205260409020600881015460ff1661038f5760405162461bcd60e51b81526020600482015260126024820152714c6f616e206973206e6f742061637469766560701b60448201526064015b60405180910390fd5b600281600401546103a09190610b3d565b81600501546103af9190610b5f565b4210156103f15760405162461bcd60e51b815260206004820152601060248201526f139bdd081e595d081b5a591c1bda5b9d60821b6044820152606401610386565b6000600260648360030154846002015461040b9190610b78565b6104159190610b3d565b83600201546104249190610b5f565b61042e9190610b3d565b905080826006015410156104ed5760088201805460ff1916905560078201541561049457600182015460078301546040516001600160a01b039092169181156108fc0291906000818181858888f19350505050158015610492573d6000803e3d6000fd5b505b81546001830154604080518681526001600160a01b03938416602082015292909116908201527fd8488207b46549891c1bb619e37bb6ecc698e50debd01897b961e97c18ae478a906060015b60405180910390a1505050565b81546001830154604080518681526001600160a01b03938416602082015292909116908201527f53cc572a8f433f4aaa7452924a95ae2aecb1aaea1f585b32a3956ae4350e71a5906060016104e0565b60008181526009602052604081206003810154600282015483916064916105649190610b78565b61056e9190610b3d565b90508082600201546105809190610b5f565b949350505050565b8034146105e25760405162461bcd60e51b815260206004820152602260248201527f436f6c6c61746572616c20616d6f756e74206d7573742062652070726f766964604482015261195960f21b6064820152608401610386565b600780549060006105f283610b8f565b9091555050604080516101208101825233815260006020808301828152838501898152606085018981526080860189815260a0870186815260c0880187815260e089018b81526101008a01898152600780548b5260099099529a892099518a546001600160a01b03199081166001600160a01b03928316178c55975160018c0180549099169116179096559351600289015591516003880155516004870155516005860155516006850155519083015591516008918201805460ff191691151591909117905580548692906106c8908490610b5f565b9091555050600754604080519182523360208301528101859052606081018390527f68595dbe887ae7f496f2c88735019a8918919a1decfdee6bdb460480ab87decb9060800160405180910390a150505050565b600081815260096020526040902060088101546001919060ff161561077c5760405162461bcd60e51b8152602060048201526016602482015275131bd85b881a5cc8185b1c9958591e48199d5b99195960521b6044820152606401610386565b806002015434146107df5760405162461bcd60e51b815260206004820152602760248201527f4d7573742070726f7669646520746865206578616374207072696e636970616c60448201526608185b5bdd5b9d60ca1b6064820152608401610386565b600180820180546001600160a01b031916331790554260058301556008808301805460ff191690921790915560028201548154909190600090610823908490610ba8565b9091555050805460028201546040516001600160a01b039092169181156108fc0291906000818181858888f19350505050158015610865573d6000803e3d6000fd5b50600281015460408051858152336020820152908101919091527fbd7ef6c6281278f6c8ac4ae9ef2f205b52425813c288dd47c377cb6b59c5076e906060016104e0565b60008181526009602052604090205481906001600160a01b031633146109115760405162461bcd60e51b815260206004820152601e60248201527f4f6e6c7920626f72726f7765722063616e2065786563757465207468697300006044820152606401610386565b600082815260096020526040902060088101546001919060ff1661096c5760405162461bcd60e51b81526020600482015260126024820152714c6f616e206973206e6f742061637469766560701b6044820152606401610386565b348160060160008282546109809190610b5f565b90915550600090506109918561053d565b905080826006015410610a8c5760088201805460ff19169055600782015415610a4057815460078301546040516001600160a01b039092169181156108fc0291906000818181858888f193505050501580156109f1573d6000803e3d6000fd5b5081546007830154604080518881526001600160a01b0390931660208401528201527e83f3d3d0a8132e9bf23ae6cde659d5f3963a6973816e144f05bfccef1842799060600160405180910390a15b600682018054600091829055600184015460405191926001600160a01b039091169183156108fc0291849190818181858888f19350505050158015610a89573d6000803e3d6000fd5b50505b8154604080518781526001600160a01b0390921660208301523482820152517f512d3e65b3e58c2187bb1872aa435dba5bd09c1c03823ba56ab70aac411e4a219181900360600190a15050505050565b600060208284031215610aee57600080fd5b5035919050565b60008060008060808587031215610b0b57600080fd5b5050823594602084013594506040840135936060013592509050565b634e487b7160e01b600052601160045260246000fd5b600082610b5a57634e487b7160e01b600052601260045260246000fd5b500490565b80820180821115610b7257610b72610b27565b92915050565b8082028115828204841417610b7257610b72610b27565b600060018201610ba157610ba1610b27565b5060010190565b81810381811115610b7257610b72610b2756fea2646970667358221220e4e7088dedf818a0ccbe2692a9b1464fee6f0bdbd8ca2a1ef3135ef8912ed81664736f6c634300081b0033","opcodes":"PUSH1 0x80 PUSH1 0x40 MSTORE CALLVALUE DUP1 ISZERO PUSH1 0xF JUMPI PUSH1 0x0 DUP1 REVERT JUMPDEST POP PUSH1 0x40 MLOAD PUSH2 0xCD4 CODESIZE SUB DUP1 PUSH2 0xCD4 DUP4 CODECOPY DUP2 ADD PUSH1 0x40 DUP2 SWAP1 MSTORE PUSH1 0x2C SWAP2 PUSH1 0x72 JUMP JUMPDEST PUSH1 0x0 DUP1 SLOAD CALLER PUSH1 0x1 PUSH1 0x1 PUSH1 0xA0 SHL SUB NOT SWAP2 DUP3 AND OR SWAP1 SWAP2 SSTORE PUSH1 0x1 SWAP7 SWAP1 SWAP7 SSTORE PUSH1 0x2 SWAP5 SWAP1 SWAP5 SSTORE PUSH1 0x3 SWAP3 SWAP1 SWAP3 SSTORE PUSH1 0x4 SSTORE PUSH1 0x5 SSTORE PUSH1 0x6 DUP1 SLOAD SWAP1 SWAP3 AND PUSH1 0x1 PUSH1 0x1 PUSH1 0xA0 SHL SUB SWAP1 SWAP2 AND OR SWAP1 SSTORE PUSH1 0xD4 JUMP JUMPDEST PUSH1 0x0 DUP1 PUSH1 0x0 DUP1 PUSH1 0x0 DUP1 PUSH1 0xC0 DUP8 DUP10 SUB SLT ISZERO PUSH1 0x8A JUMPI PUSH1 0x0 DUP1 REVERT JUMPDEST DUP7 MLOAD PUSH1 0x20 DUP9 ADD MLOAD PUSH1 0x40 DUP10 ADD MLOAD PUSH1 0x60 DUP11 ADD MLOAD PUSH1 0x80 DUP12 ADD MLOAD PUSH1 0xA0 DUP13 ADD MLOAD SWAP5 SWAP11 POP SWAP3 SWAP9 POP SWAP1 SWAP7 POP SWAP5 POP SWAP3 POP PUSH1 0x1 PUSH1 0x1 PUSH1 0xA0 SHL SUB DUP2 AND DUP2 EQ PUSH1 0xC6 JUMPI PUSH1 0x0 DUP1 REVERT JUMPDEST DUP1 SWAP2 POP POP SWAP3 SWAP6 POP SWAP3 SWAP6 POP SWAP3 SWAP6 JUMP JUMPDEST PUSH2 0xBF1 DUP1 PUSH2 0xE3 PUSH1 0x0 CODECOPY PUSH1 0x0 RETURN INVALID PUSH1 0x80 PUSH1 0x40 MSTORE PUSH1 0x4 CALLDATASIZE LT PUSH2 0xE8 JUMPI PUSH1 0x0 CALLDATALOAD PUSH1 0xE0 SHR DUP1 PUSH4 0x846B909A GT PUSH2 0x8A JUMPI DUP1 PUSH4 0xBB299A8B GT PUSH2 0x59 JUMPI DUP1 PUSH4 0xBB299A8B EQ PUSH2 0x22B JUMPI DUP1 PUSH4 0xCC3F4E20 EQ PUSH2 0x241 JUMPI DUP1 PUSH4 0xDFCB48BD EQ PUSH2 0x257 JUMPI DUP1 PUSH4 0xE1EC3C68 EQ PUSH2 0x26D JUMPI PUSH1 0x0 DUP1 REVERT JUMPDEST DUP1 PUSH4 0x846B909A EQ PUSH2 0x1CF JUMPI DUP1 PUSH4 0x8DA5CB5B EQ PUSH2 0x1E2 JUMPI DUP1 PUSH4 0xAB7B1C89 EQ PUSH2 0x202 JUMPI DUP1 PUSH4 0xAFD92762 EQ PUSH2 0x215 JUMPI PUSH1 0x0 DUP1 REVERT JUMPDEST DUP1 PUSH4 0x2BC51C6D GT PUSH2 0xC6 JUMPI DUP1 PUSH4 0x2BC51C6D EQ PUSH2 0x14E JUMPI DUP1 PUSH4 0x34D9289E EQ PUSH2 0x186 JUMPI DUP1 PUSH4 0x5858224B EQ PUSH2 0x19C JUMPI DUP1 PUSH4 0x753C7FF9 EQ PUSH2 0x1BC JUMPI PUSH1 0x0 DUP1 REVERT JUMPDEST DUP1 PUSH4 0xD63EE1B EQ PUSH2 0xED JUMPI DUP1 PUSH4 0x1F5CA1DC EQ PUSH2 0x10F JUMPI DUP1 PUSH4 0x26232A2E EQ PUSH2 0x138 JUMPI JUMPDEST PUSH1 0x0 DUP1 REVERT JUMPDEST CALLVALUE DUP1 ISZERO PUSH2 0xF9 JUMPI PUSH1 0x0 DUP1 REVERT JUMPDEST POP PUSH2 0x10D PUSH2 0x108 CALLDATASIZE PUSH1 0x4 PUSH2 0xADC JUMP JUMPDEST PUSH2 0x333 JUMP JUMPDEST STOP JUMPDEST CALLVALUE DUP1 ISZERO PUSH2 0x11B JUMPI PUSH1 0x0 DUP1 REVERT JUMPDEST POP PUSH2 0x125 PUSH1 0x1 SLOAD DUP2 JUMP JUMPDEST PUSH1 0x40 MLOAD SWAP1 DUP2 MSTORE PUSH1 0x20 ADD JUMPDEST PUSH1 0x40 MLOAD DUP1 SWAP2 SUB SWAP1 RETURN JUMPDEST CALLVALUE DUP1 ISZERO PUSH2 0x144 JUMPI PUSH1 0x0 DUP1 REVERT JUMPDEST POP PUSH2 0x125 PUSH1 0x2 SLOAD DUP2 JUMP JUMPDEST CALLVALUE DUP1 ISZERO PUSH2 0x15A JUMPI PUSH1 0x0 DUP1 REVERT JUMPDEST POP PUSH1 0x6 SLOAD PUSH2 0x16E SWAP1 PUSH1 0x1 PUSH1 0x1 PUSH1 0xA0 SHL SUB AND DUP2 JUMP JUMPDEST PUSH1 0x40 MLOAD PUSH1 0x1 PUSH1 0x1 PUSH1 0xA0 SHL SUB SWAP1 SWAP2 AND DUP2 MSTORE PUSH1 0x20 ADD PUSH2 0x12F JUMP JUMPDEST CALLVALUE DUP1 ISZERO PUSH2 0x192 JUMPI PUSH1 0x0 DUP1 REVERT JUMPDEST POP PUSH2 0x125 PUSH1 0x7 SLOAD DUP2 JUMP JUMPDEST CALLVALUE DUP1 ISZERO PUSH2 0x1A8 JUMPI PUSH1 0x0 DUP1 REVERT JUMPDEST POP PUSH2 0x125 PUSH2 0x1B7 CALLDATASIZE PUSH1 0x4 PUSH2 0xADC JUMP JUMPDEST PUSH2 0x53D JUMP JUMPDEST PUSH2 0x10D PUSH2 0x1CA CALLDATASIZE PUSH1 0x4 PUSH2 0xAF5 JUMP JUMPDEST PUSH2 0x588 JUMP JUMPDEST PUSH2 0x10D PUSH2 0x1DD CALLDATASIZE PUSH1 0x4 PUSH2 0xADC JUMP JUMPDEST PUSH2 0x71C JUMP JUMPDEST CALLVALUE DUP1 ISZERO PUSH2 0x1EE JUMPI PUSH1 0x0 DUP1 REVERT JUMPDEST POP PUSH1 0x0 SLOAD PUSH2 0x16E SWAP1 PUSH1 0x1 PUSH1 0x1 PUSH1 0xA0 SHL SUB AND DUP2 JUMP JUMPDEST PUSH2 0x10D PUSH2 0x210 CALLDATASIZE PUSH1 0x4 PUSH2 0xADC JUMP JUMPDEST PUSH2 0x8A9 JUMP JUMPDEST CALLVALUE DUP1 ISZERO PUSH2 0x221 JUMPI PUSH1 0x0 DUP1 REVERT JUMPDEST POP PUSH2 0x125 PUSH1 0x3 SLOAD DUP2 JUMP JUMPDEST CALLVALUE DUP1 ISZERO PUSH2 0x237 JUMPI PUSH1 0x0 DUP1 REVERT JUMPDEST POP PUSH2 0x125 PUSH1 0x4 SLOAD DUP2 JUMP JUMPDEST CALLVALUE DUP1 ISZERO PUSH2 0x24D JUMPI PUSH1 0x0 DUP1 REVERT JUMPDEST POP PUSH2 0x125 PUSH1 0x8 SLOAD DUP2 JUMP JUMPDEST CALLVALUE DUP1 ISZERO PUSH2 0x263 JUMPI PUSH1 0x0 DUP1 REVERT JUMPDEST POP PUSH2 0x125 PUSH1 0x5 SLOAD DUP2 JUMP JUMPDEST CALLVALUE DUP1 ISZERO PUSH2 0x279 JUMPI PUSH1 0x0 DUP1 REVERT JUMPDEST POP PUSH2 0x2E2 PUSH2 0x288 CALLDATASIZE PUSH1 0x4 PUSH2 0xADC JUMP JUMPDEST PUSH1 0x9 PUSH1 0x20 MSTORE PUSH1 0x0 SWAP1 DUP2 MSTORE PUSH1 0x40 SWAP1 KECCAK256 DUP1 SLOAD PUSH1 0x1 DUP3 ADD SLOAD PUSH1 0x2 DUP4 ADD SLOAD PUSH1 0x3 DUP5 ADD SLOAD PUSH1 0x4 DUP6 ADD SLOAD PUSH1 0x5 DUP7 ADD SLOAD PUSH1 0x6 DUP8 ADD SLOAD PUSH1 0x7 DUP9 ADD SLOAD PUSH1 0x8 SWAP1 SWAP9 ADD SLOAD PUSH1 0x1 PUSH1 0x1 PUSH1 0xA0 SHL SUB SWAP8 DUP9 AND SWAP9 SWAP8 SWAP1 SWAP7 AND SWAP7 SWAP5 SWAP6 SWAP4 SWAP5 SWAP3 SWAP4 SWAP2 SWAP3 SWAP1 SWAP2 PUSH1 0xFF AND DUP10 JUMP JUMPDEST PUSH1 0x40 DUP1 MLOAD PUSH1 0x1 PUSH1 0x1 PUSH1 0xA0 SHL SUB SWAP11 DUP12 AND DUP2 MSTORE SWAP10 SWAP1 SWAP9 AND PUSH1 0x20 DUP11 ADD MSTORE SWAP7 DUP9 ADD SWAP6 SWAP1 SWAP6 MSTORE PUSH1 0x60 DUP8 ADD SWAP4 SWAP1 SWAP4 MSTORE PUSH1 0x80 DUP7 ADD SWAP2 SWAP1 SWAP2 MSTORE PUSH1 0xA0 DUP6 ADD MSTORE PUSH1 0xC0 DUP5 ADD MSTORE PUSH1 0xE0 DUP4 ADD MSTORE ISZERO ISZERO PUSH2 0x100 DUP3 ADD MSTORE PUSH2 0x120 ADD PUSH2 0x12F JUMP JUMPDEST PUSH1 0x0 DUP2 DUP2 MSTORE PUSH1 0x9 PUSH1 0x20 MSTORE PUSH1 0x40 SWAP1 KECCAK256 PUSH1 0x8 DUP2 ADD SLOAD PUSH1 0xFF AND PUSH2 0x38F JUMPI PUSH1 0x40 MLOAD PUSH3 0x461BCD PUSH1 0xE5 SHL DUP2 MSTORE PUSH1 0x20 PUSH1 0x4 DUP3 ADD MSTORE PUSH1 0x12 PUSH1 0x24 DUP3 ADD MSTORE PUSH18 0x4C6F616E206973206E6F7420616374697665 PUSH1 0x70 SHL PUSH1 0x44 DUP3 ADD MSTORE PUSH1 0x64 ADD JUMPDEST PUSH1 0x40 MLOAD DUP1 SWAP2 SUB SWAP1 REVERT JUMPDEST PUSH1 0x2 DUP2 PUSH1 0x4 ADD SLOAD PUSH2 0x3A0 SWAP2 SWAP1 PUSH2 0xB3D JUMP JUMPDEST DUP2 PUSH1 0x5 ADD SLOAD PUSH2 0x3AF SWAP2 SWAP1 PUSH2 0xB5F JUMP JUMPDEST TIMESTAMP LT ISZERO PUSH2 0x3F1 JUMPI PUSH1 0x40 MLOAD PUSH3 0x461BCD PUSH1 0xE5 SHL DUP2 MSTORE PUSH1 0x20 PUSH1 0x4 DUP3 ADD MSTORE PUSH1 0x10 PUSH1 0x24 DUP3 ADD MSTORE PUSH16 0x139BDD081E595D081B5A591C1BDA5B9D PUSH1 0x82 SHL PUSH1 0x44 DUP3 ADD MSTORE PUSH1 0x64 ADD PUSH2 0x386 JUMP JUMPDEST PUSH1 0x0 PUSH1 0x2 PUSH1 0x64 DUP4 PUSH1 0x3 ADD SLOAD DUP5 PUSH1 0x2 ADD SLOAD PUSH2 0x40B SWAP2 SWAP1 PUSH2 0xB78 JUMP JUMPDEST PUSH2 0x415 SWAP2 SWAP1 PUSH2 0xB3D JUMP JUMPDEST DUP4 PUSH1 0x2 ADD SLOAD PUSH2 0x424 SWAP2 SWAP1 PUSH2 0xB5F JUMP JUMPDEST PUSH2 0x42E SWAP2 SWAP1 PUSH2 0xB3D JUMP JUMPDEST SWAP1 POP DUP1 DUP3 PUSH1 0x6 ADD SLOAD LT ISZERO PUSH2 0x4ED JUMPI PUSH1 0x8 DUP3 ADD DUP1 SLOAD PUSH1 0xFF NOT AND SWAP1 SSTORE PUSH1 0x7 DUP3 ADD SLOAD ISZERO PUSH2 0x494 JUMPI PUSH1 0x1 DUP3 ADD SLOAD PUSH1 0x7 DUP4 ADD SLOAD PUSH1 0x40 MLOAD PUSH1 0x1 PUSH1 0x1 PUSH1 0xA0 SHL SUB SWAP1 SWAP3 AND SWAP2 DUP2 ISZERO PUSH2 0x8FC MUL SWAP2 SWAP1 PUSH1 0x0 DUP2 DUP2 DUP2 DUP6 DUP9 DUP9 CALL SWAP4 POP POP POP POP ISZERO DUP1 ISZERO PUSH2 0x492 JUMPI RETURNDATASIZE PUSH1 0x0 DUP1 RETURNDATACOPY RETURNDATASIZE PUSH1 0x0 REVERT JUMPDEST POP JUMPDEST DUP2 SLOAD PUSH1 0x1 DUP4 ADD SLOAD PUSH1 0x40 DUP1 MLOAD DUP7 DUP2 MSTORE PUSH1 0x1 PUSH1 0x1 PUSH1 0xA0 SHL SUB SWAP4 DUP5 AND PUSH1 0x20 DUP3 ADD MSTORE SWAP3 SWAP1 SWAP2 AND SWAP1 DUP3 ADD MSTORE PUSH32 0xD8488207B46549891C1BB619E37BB6ECC698E50DEBD01897B961E97C18AE478A SWAP1 PUSH1 0x60 ADD JUMPDEST PUSH1 0x40 MLOAD DUP1 SWAP2 SUB SWAP1 LOG1 POP POP POP JUMP JUMPDEST DUP2 SLOAD PUSH1 0x1 DUP4 ADD SLOAD PUSH1 0x40 DUP1 MLOAD DUP7 DUP2 MSTORE PUSH1 0x1 PUSH1 0x1 PUSH1 0xA0 SHL SUB SWAP4 DUP5 AND PUSH1 0x20 DUP3 ADD MSTORE SWAP3 SWAP1 SWAP2 AND SWAP1 DUP3 ADD MSTORE PUSH32 0x53CC572A8F433F4AAA7452924A95AE2AECB1AAEA1F585B32A3956AE4350E71A5 SWAP1 PUSH1 0x60 ADD PUSH2 0x4E0 JUMP JUMPDEST PUSH1 0x0 DUP2 DUP2 MSTORE PUSH1 0x9 PUSH1 0x20 MSTORE PUSH1 0x40 DUP2 KECCAK256 PUSH1 0x3 DUP2 ADD SLOAD PUSH1 0x2 DUP3 ADD SLOAD DUP4 SWAP2 PUSH1 0x64 SWAP2 PUSH2 0x564 SWAP2 SWAP1 PUSH2 0xB78 JUMP JUMPDEST PUSH2 0x56E SWAP2 SWAP1 PUSH2 0xB3D JUMP JUMPDEST SWAP1 POP DUP1 DUP3 PUSH1 0x2 ADD SLOAD PUSH2 0x580 SWAP2 SWAP1 PUSH2 0xB5F JUMP JUMPDEST SWAP5 SWAP4 POP POP POP POP JUMP JUMPDEST DUP1 CALLVALUE EQ PUSH2 0x5E2 JUMPI PUSH1 0x40 MLOAD PUSH3 0x461BCD PUSH1 0xE5 SHL DUP2 MSTORE PUSH1 0x20 PUSH1 0x4 DUP3 ADD MSTORE PUSH1 0x22 PUSH1 0x24 DUP3 ADD MSTORE PUSH32 0x436F6C6C61746572616C20616D6F756E74206D7573742062652070726F766964 PUSH1 0x44 DUP3 ADD MSTORE PUSH2 0x1959 PUSH1 0xF2 SHL PUSH1 0x64 DUP3 ADD MSTORE PUSH1 0x84 ADD PUSH2 0x386 JUMP JUMPDEST PUSH1 0x7 DUP1 SLOAD SWAP1 PUSH1 0x0 PUSH2 0x5F2 DUP4 PUSH2 0xB8F JUMP JUMPDEST SWAP1 SWAP2 SSTORE POP POP PUSH1 0x40 DUP1 MLOAD PUSH2 0x120 DUP2 ADD DUP3 MSTORE CALLER DUP2 MSTORE PUSH1 0x0 PUSH1 0x20 DUP1 DUP4 ADD DUP3 DUP2 MSTORE DUP4 DUP6 ADD DUP10 DUP2 MSTORE PUSH1 0x60 DUP6 ADD DUP10 DUP2 MSTORE PUSH1 0x80 DUP7 ADD DUP10 DUP2 MSTORE PUSH1 0xA0 DUP8 ADD DUP7 DUP2 MSTORE PUSH1 0xC0 DUP9 ADD DUP8 DUP2 MSTORE PUSH1 0xE0 DUP10 ADD DUP12 DUP2 MSTORE PUSH2 0x100 DUP11 ADD DUP10 DUP2 MSTORE PUSH1 0x7 DUP1 SLOAD DUP12 MSTORE PUSH1 0x9 SWAP1 SWAP10 MSTORE SWAP11 DUP10 KECCAK256 SWAP10 MLOAD DUP11 SLOAD PUSH1 0x1 PUSH1 0x1 PUSH1 0xA0 SHL SUB NOT SWAP1 DUP2 AND PUSH1 0x1 PUSH1 0x1 PUSH1 0xA0 SHL SUB SWAP3 DUP4 AND OR DUP13 SSTORE SWAP8 MLOAD PUSH1 0x1 DUP13 ADD DUP1 SLOAD SWAP1 SWAP10 AND SWAP2 AND OR SWAP1 SWAP7 SSTORE SWAP4 MLOAD PUSH1 0x2 DUP10 ADD SSTORE SWAP2 MLOAD PUSH1 0x3 DUP9 ADD SSTORE MLOAD PUSH1 0x4 DUP8 ADD SSTORE MLOAD PUSH1 0x5 DUP7 ADD SSTORE MLOAD PUSH1 0x6 DUP6 ADD SSTORE MLOAD SWAP1 DUP4 ADD SSTORE SWAP2 MLOAD PUSH1 0x8 SWAP2 DUP3 ADD DUP1 SLOAD PUSH1 0xFF NOT AND SWAP2 ISZERO ISZERO SWAP2 SWAP1 SWAP2 OR SWAP1 SSTORE DUP1 SLOAD DUP7 SWAP3 SWAP1 PUSH2 0x6C8 SWAP1 DUP5 SWAP1 PUSH2 0xB5F JUMP JUMPDEST SWAP1 SWAP2 SSTORE POP POP PUSH1 0x7 SLOAD PUSH1 0x40 DUP1 MLOAD SWAP2 DUP3 MSTORE CALLER PUSH1 0x20 DUP4 ADD MSTORE DUP2 ADD DUP6 SWAP1 MSTORE PUSH1 0x60 DUP2 ADD DUP4 SWAP1 MSTORE PUSH32 0x68595DBE887AE7F496F2C88735019A8918919A1DECFDEE6BDB460480AB87DECB SWAP1 PUSH1 0x80 ADD PUSH1 0x40 MLOAD DUP1 SWAP2 SUB SWAP1 LOG1 POP POP POP POP JUMP JUMPDEST PUSH1 0x0 DUP2 DUP2 MSTORE PUSH1 0x9 PUSH1 0x20 MSTORE PUSH1 0x40 SWAP1 KECCAK256 PUSH1 0x8 DUP2 ADD SLOAD PUSH1 0x1 SWAP2 SWAP1 PUSH1 0xFF AND ISZERO PUSH2 0x77C JUMPI PUSH1 0x40 MLOAD PUSH3 0x461BCD PUSH1 0xE5 SHL DUP2 MSTORE PUSH1 0x20 PUSH1 0x4 DUP3 ADD MSTORE PUSH1 0x16 PUSH1 0x24 DUP3 ADD MSTORE PUSH22 0x131BD85B881A5CC8185B1C9958591E48199D5B991959 PUSH1 0x52 SHL PUSH1 0x44 DUP3 ADD MSTORE PUSH1 0x64 ADD PUSH2 0x386 JUMP JUMPDEST DUP1 PUSH1 0x2 ADD SLOAD CALLVALUE EQ PUSH2 0x7DF JUMPI PUSH1 0x40 MLOAD PUSH3 0x461BCD PUSH1 0xE5 SHL DUP2 MSTORE PUSH1 0x20 PUSH1 0x4 DUP3 ADD MSTORE PUSH1 0x27 PUSH1 0x24 DUP3 ADD MSTORE PUSH32 0x4D7573742070726F7669646520746865206578616374207072696E636970616C PUSH1 0x44 DUP3 ADD MSTORE PUSH7 0x8185B5BDD5B9D PUSH1 0xCA SHL PUSH1 0x64 DUP3 ADD MSTORE PUSH1 0x84 ADD PUSH2 0x386 JUMP JUMPDEST PUSH1 0x1 DUP1 DUP3 ADD DUP1 SLOAD PUSH1 0x1 PUSH1 0x1 PUSH1 0xA0 SHL SUB NOT AND CALLER OR SWAP1 SSTORE TIMESTAMP PUSH1 0x5 DUP4 ADD SSTORE PUSH1 0x8 DUP1 DUP4 ADD DUP1 SLOAD PUSH1 0xFF NOT AND SWAP1 SWAP3 OR SWAP1 SWAP2 SSTORE PUSH1 0x2 DUP3 ADD SLOAD DUP2 SLOAD SWAP1 SWAP2 SWAP1 PUSH1 0x0 SWAP1 PUSH2 0x823 SWAP1 DUP5 SWAP1 PUSH2 0xBA8 JUMP JUMPDEST SWAP1 SWAP2 SSTORE POP POP DUP1 SLOAD PUSH1 0x2 DUP3 ADD SLOAD PUSH1 0x40 MLOAD PUSH1 0x1 PUSH1 0x1 PUSH1 0xA0 SHL SUB SWAP1 SWAP3 AND SWAP2 DUP2 ISZERO PUSH2 0x8FC MUL SWAP2 SWAP1 PUSH1 0x0 DUP2 DUP2 DUP2 DUP6 DUP9 DUP9 CALL SWAP4 POP POP POP POP ISZERO DUP1 ISZERO PUSH2 0x865 JUMPI RETURNDATASIZE PUSH1 0x0 DUP1 RETURNDATACOPY RETURNDATASIZE PUSH1 0x0 REVERT JUMPDEST POP PUSH1 0x2 DUP2 ADD SLOAD PUSH1 0x40 DUP1 MLOAD DUP6 DUP2 MSTORE CALLER PUSH1 0x20 DUP3 ADD MSTORE SWAP1 DUP2 ADD SWAP2 SWAP1 SWAP2 MSTORE PUSH32 0xBD7EF6C6281278F6C8AC4AE9EF2F205B52425813C288DD47C377CB6B59C5076E SWAP1 PUSH1 0x60 ADD PUSH2 0x4E0 JUMP JUMPDEST PUSH1 0x0 DUP2 DUP2 MSTORE PUSH1 0x9 PUSH1 0x20 MSTORE PUSH1 0x40 SWAP1 KECCAK256 SLOAD DUP2 SWAP1 PUSH1 0x1 PUSH1 0x1 PUSH1 0xA0 SHL SUB AND CALLER EQ PUSH2 0x911 JUMPI PUSH1 0x40 MLOAD PUSH3 0x461BCD PUSH1 0xE5 SHL DUP2 MSTORE PUSH1 0x20 PUSH1 0x4 DUP3 ADD MSTORE PUSH1 0x1E PUSH1 0x24 DUP3 ADD MSTORE PUSH32 0x4F6E6C7920626F72726F7765722063616E206578656375746520746869730000 PUSH1 0x44 DUP3 ADD MSTORE PUSH1 0x64 ADD PUSH2 0x386 JUMP JUMPDEST PUSH1 0x0 DUP3 DUP2 MSTORE PUSH1 0x9 PUSH1 0x20 MSTORE PUSH1 0x40 SWAP1 KECCAK256 PUSH1 0x8 DUP2 ADD SLOAD PUSH1 0x1 SWAP2 SWAP1 PUSH1 0xFF AND PUSH2 0x96C JUMPI PUSH1 0x40 MLOAD PUSH3 0x461BCD PUSH1 0xE5 SHL DUP2 MSTORE PUSH1 0x20 PUSH1 0x4 DUP3 ADD MSTORE PUSH1 0x12 PUSH1 0x24 DUP3 ADD MSTORE PUSH18 0x4C6F616E206973206E6F7420616374697665 PUSH1 0x70 SHL PUSH1 0x44 DUP3 ADD MSTORE PUSH1 0x64 ADD PUSH2 0x386 JUMP JUMPDEST CALLVALUE DUP2 PUSH1 0x6 ADD PUSH1 0x0 DUP3 DUP3 SLOAD PUSH2 0x980 SWAP2 SWAP1 PUSH2 0xB5F JUMP JUMPDEST SWAP1 SWAP2 SSTORE POP PUSH1 0x0 SWAP1 POP PUSH2 0x991 DUP6 PUSH2 0x53D JUMP JUMPDEST SWAP1 POP DUP1 DUP3 PUSH1 0x6 ADD SLOAD LT PUSH2 0xA8C JUMPI PUSH1 0x8 DUP3 ADD DUP1 SLOAD PUSH1 0xFF NOT AND SWAP1 SSTORE PUSH1 0x7 DUP3 ADD SLOAD ISZERO PUSH2 0xA40 JUMPI DUP2 SLOAD PUSH1 0x7 DUP4 ADD SLOAD PUSH1 0x40 MLOAD PUSH1 0x1 PUSH1 0x1 PUSH1 0xA0 SHL SUB SWAP1 SWAP3 AND SWAP2 DUP2 ISZERO PUSH2 0x8FC MUL SWAP2 SWAP1 PUSH1 0x0 DUP2 DUP2 DUP2 DUP6 DUP9 DUP9 CALL SWAP4 POP POP POP POP ISZERO DUP1 ISZERO PUSH2 0x9F1 JUMPI RETURNDATASIZE PUSH1 0x0 DUP1 RETURNDATACOPY RETURNDATASIZE PUSH1 0x0 REVERT JUMPDEST POP DUP2 SLOAD PUSH1 0x7 DUP4 ADD SLOAD PUSH1 0x40 DUP1 MLOAD DUP9 DUP2 MSTORE PUSH1 0x1 PUSH1 0x1 PUSH1 0xA0 SHL SUB SWAP1 SWAP4 AND PUSH1 0x20 DUP5 ADD MSTORE DUP3 ADD MSTORE PUSH31 0x83F3D3D0A8132E9BF23AE6CDE659D5F3963A6973816E144F05BFCCEF184279 SWAP1 PUSH1 0x60 ADD PUSH1 0x40 MLOAD DUP1 SWAP2 SUB SWAP1 LOG1 JUMPDEST PUSH1 0x6 DUP3 ADD DUP1 SLOAD PUSH1 0x0 SWAP2 DUP3 SWAP1 SSTORE PUSH1 0x1 DUP5 ADD SLOAD PUSH1 0x40 MLOAD SWAP2 SWAP3 PUSH1 0x1 PUSH1 0x1 PUSH1 0xA0 SHL SUB SWAP1 SWAP2 AND SWAP2 DUP4 ISZERO PUSH2 0x8FC MUL SWAP2 DUP5 SWAP2 SWAP1 DUP2 DUP2 DUP2 DUP6 DUP9 DUP9 CALL SWAP4 POP POP POP POP ISZERO DUP1 ISZERO PUSH2 0xA89 JUMPI RETURNDATASIZE PUSH1 0x0 DUP1 RETURNDATACOPY RETURNDATASIZE PUSH1 0x0 REVERT JUMPDEST POP POP JUMPDEST DUP2 SLOAD PUSH1 0x40 DUP1 MLOAD DUP8 DUP2 MSTORE PUSH1 0x1 PUSH1 0x1 PUSH1 0xA0 SHL SUB SWAP1 SWAP3 AND PUSH1 0x20 DUP4 ADD MSTORE CALLVALUE DUP3 DUP3 ADD MSTORE MLOAD PUSH32 0x512D3E65B3E58C2187BB1872AA435DBA5BD09C1C03823BA56AB70AAC411E4A21 SWAP2 DUP2 SWAP1 SUB PUSH1 0x60 ADD SWAP1 LOG1 POP POP POP POP POP JUMP JUMPDEST PUSH1 0x0 PUSH1 0x20 DUP3 DUP5 SUB SLT ISZERO PUSH2 0xAEE JUMPI PUSH1 0x0 DUP1 REVERT JUMPDEST POP CALLDATALOAD SWAP2 SWAP1 POP JUMP JUMPDEST PUSH1 0x0 DUP1 PUSH1 0x0 DUP1 PUSH1 0x80 DUP6 DUP8 SUB SLT ISZERO PUSH2 0xB0B JUMPI PUSH1 0x0 DUP1 REVERT JUMPDEST POP POP DUP3 CALLDATALOAD SWAP5 PUSH1 0x20 DUP5 ADD CALLDATALOAD SWAP5 POP PUSH1 0x40 DUP5 ADD CALLDATALOAD SWAP4 PUSH1 0x60 ADD CALLDATALOAD SWAP3 POP SWAP1 POP JUMP JUMPDEST PUSH4 0x4E487B71 PUSH1 0xE0 SHL PUSH1 0x0 MSTORE PUSH1 0x11 PUSH1 0x4 MSTORE PUSH1 0x24 PUSH1 0x0 REVERT JUMPDEST PUSH1 0x0 DUP3 PUSH2 0xB5A JUMPI PUSH4 0x4E487B71 PUSH1 0xE0 SHL PUSH1 0x0 MSTORE PUSH1 0x12 PUSH1 0x4 MSTORE PUSH1 0x24 PUSH1 0x0 REVERT JUMPDEST POP DIV SWAP1 JUMP JUMPDEST DUP1 DUP3 ADD DUP1 DUP3 GT ISZERO PUSH2 0xB72 JUMPI PUSH2 0xB72 PUSH2 0xB27 JUMP JUMPDEST SWAP3 SWAP2 POP POP JUMP JUMPDEST DUP1 DUP3 MUL DUP2 ISZERO DUP3 DUP3 DIV DUP5 EQ OR PUSH2 0xB72 JUMPI PUSH2 0xB72 PUSH2 0xB27 JUMP JUMPDEST PUSH1 0x0 PUSH1 0x1 DUP3 ADD PUSH2 0xBA1 JUMPI PUSH2 0xBA1 PUSH2 0xB27 JUMP JUMPDEST POP PUSH1 0x1 ADD SWAP1 JUMP JUMPDEST DUP2 DUP2 SUB DUP2 DUP2 GT ISZERO PUSH2 0xB72 JUMPI PUSH2 0xB72 PUSH2 0xB27 JUMP INVALID LOG2 PUSH5 0x6970667358 0x22 SLT KECCAK256 0xE4 0xE7 ADDMOD DUP14 0xED 0xF8 XOR LOG0 0xCC 0xBE 0x26 SWAP3 0xA9 0xB1 CHAINID 0x4F 0xEE PUSH16 0xBDBD8CA2A1EF3135EF8912ED8166473 PUSH16 0x6C634300081B00330000000000000000 "},"methodIdentifiers":{"baseInterestRate()":"afd92762","calculateTotalRepayment(uint256)":"5858224b","checkMidpoint(uint256)":"0d63ee1b","fundLoan(uint256)":"846b909a","liquidityBuffer()":"cc3f4e20","loanCounter()":"34d9289e","loans(uint256)":"e1ec3c68","maxUtilizationRate()":"dfcb48bd","minimumPoolBalance()":"1f5ca1dc","owner()":"8da5cb5b","platformFee()":"26232a2e","priceOracleAddress()":"2bc51c6d","repayLoan(uint256)":"ab7b1c89","requestLoan(uint256,uint256,uint256,uint256)":"753c7ff9","utilizationRateMultiplier()":"bb299a8b"}}}}}