{
  "_format": "hh-sol-artifact-1",
  "contractName": "p2pSmartContract",
  "sourceName": "contracts/p2pSmartContract.sol",
  "abi": [
    {
      "inputs": [
        {
          "internalType": "uint256",
          "name": "_minimumPoolBalance",
          "type": "uint256"
        },
        {
          "internalType": "uint256",
          "name": "_platformFee",
          "type": "uint256"
        },
        {
          "internalType": "uint256",
          "name": "_baseInterestRate",
          "type": "uint256"
        },
        {
          "internalType": "uint256",
          "name": "_utilizationRateMultiplier",
          "type": "uint256"
        },
        {
          "internalType": "uint256",
          "name": "_maxUtilizationRate",
          "type": "uint256"
        }
      ],
      "stateMutability": "nonpayable",
      "type": "constructor"
    },
    {
      "anonymous": false,
      "inputs": [
        {
          "indexed": false,
          "internalType": "uint256",
          "name": "loanId",
          "type": "uint256"
        },
        {
          "indexed": false,
          "internalType": "address",
          "name": "borrower",
          "type": "address"
        },
        {
          "indexed": false,
          "internalType": "uint256",
          "name": "amount",
          "type": "uint256"
        }
      ],
      "name": "CollateralReturned",
      "type": "event"
    },
    {
      "anonymous": false,
      "inputs": [
        {
          "indexed": false,
          "internalType": "uint256",
          "name": "loanId",
          "type": "uint256"
        },
        {
          "indexed": false,
          "internalType": "address",
          "name": "borrower",
          "type": "address"
        },
        {
          "indexed": false,
          "internalType": "address",
          "name": "lender",
          "type": "address"
        }
      ],
      "name": "LoanDefaulted",
      "type": "event"
    },
    {
      "anonymous": false,
      "inputs": [
        {
          "indexed": false,
          "internalType": "uint256",
          "name": "loanId",
          "type": "uint256"
        },
        {
          "indexed": false,
          "internalType": "address",
          "name": "lender",
          "type": "address"
        },
        {
          "indexed": false,
          "internalType": "uint256",
          "name": "amount",
          "type": "uint256"
        }
      ],
      "name": "LoanFunded",
      "type": "event"
    },
    {
      "anonymous": false,
      "inputs": [
        {
          "indexed": false,
          "internalType": "uint256",
          "name": "loanId",
          "type": "uint256"
        },
        {
          "indexed": false,
          "internalType": "address",
          "name": "borrower",
          "type": "address"
        },
        {
          "indexed": false,
          "internalType": "address",
          "name": "lender",
          "type": "address"
        }
      ],
      "name": "LoanOnTrack",
      "type": "event"
    },
    {
      "anonymous": false,
      "inputs": [
        {
          "indexed": false,
          "internalType": "uint256",
          "name": "loanId",
          "type": "uint256"
        },
        {
          "indexed": false,
          "internalType": "address",
          "name": "borrower",
          "type": "address"
        },
        {
          "indexed": false,
          "internalType": "uint256",
          "name": "amount",
          "type": "uint256"
        }
      ],
      "name": "LoanRepaid",
      "type": "event"
    },
    {
      "anonymous": false,
      "inputs": [
        {
          "indexed": false,
          "internalType": "uint256",
          "name": "loanId",
          "type": "uint256"
        },
        {
          "indexed": false,
          "internalType": "address",
          "name": "borrower",
          "type": "address"
        },
        {
          "indexed": false,
          "internalType": "uint256",
          "name": "principal",
          "type": "uint256"
        },
        {
          "indexed": false,
          "internalType": "uint256",
          "name": "duration",
          "type": "uint256"
        }
      ],
      "name": "LoanRequested",
      "type": "event"
    },
    {
      "inputs": [],
      "name": "baseInterestRate",
      "outputs": [
        {
          "internalType": "uint256",
          "name": "",
          "type": "uint256"
        }
      ],
      "stateMutability": "view",
      "type": "function"
    },
    {
      "inputs": [
        {
          "internalType": "uint256",
          "name": "loanId",
          "type": "uint256"
        }
      ],
      "name": "calculateTotalRepayment",
      "outputs": [
        {
          "internalType": "uint256",
          "name": "",
          "type": "uint256"
        }
      ],
      "stateMutability": "view",
      "type": "function"
    },
    {
      "inputs": [
        {
          "internalType": "uint256",
          "name": "loanId",
          "type": "uint256"
        }
      ],
      "name": "checkMidpoint",
      "outputs": [],
      "stateMutability": "nonpayable",
      "type": "function"
    },
    {
      "inputs": [],
      "name": "collateralAdequacyThreshold",
      "outputs": [
        {
          "internalType": "uint256",
          "name": "",
          "type": "uint256"
        }
      ],
      "stateMutability": "view",
      "type": "function"
    },
    {
      "inputs": [
        {
          "internalType": "uint256",
          "name": "loanId",
          "type": "uint256"
        }
      ],
      "name": "fundLoan",
      "outputs": [],
      "stateMutability": "payable",
      "type": "function"
    },
    {
      "inputs": [],
      "name": "liquidityBuffer",
      "outputs": [
        {
          "internalType": "uint256",
          "name": "",
          "type": "uint256"
        }
      ],
      "stateMutability": "view",
      "type": "function"
    },
    {
      "inputs": [],
      "name": "loanCounter",
      "outputs": [
        {
          "internalType": "uint256",
          "name": "",
          "type": "uint256"
        }
      ],
      "stateMutability": "view",
      "type": "function"
    },
    {
      "inputs": [
        {
          "internalType": "uint256",
          "name": "",
          "type": "uint256"
        }
      ],
      "name": "loans",
      "outputs": [
        {
          "internalType": "address",
          "name": "borrower",
          "type": "address"
        },
        {
          "internalType": "address",
          "name": "lender",
          "type": "address"
        },
        {
          "internalType": "uint256",
          "name": "principal",
          "type": "uint256"
        },
        {
          "internalType": "uint256",
          "name": "interest",
          "type": "uint256"
        },
        {
          "internalType": "uint256",
          "name": "duration",
          "type": "uint256"
        },
        {
          "internalType": "uint256",
          "name": "startTime",
          "type": "uint256"
        },
        {
          "internalType": "uint256",
          "name": "repaidAmount",
          "type": "uint256"
        },
        {
          "internalType": "uint256",
          "name": "collateral",
          "type": "uint256"
        },
        {
          "internalType": "bool",
          "name": "isActive",
          "type": "bool"
        }
      ],
      "stateMutability": "view",
      "type": "function"
    },
    {
      "inputs": [],
      "name": "maxUtilizationRate",
      "outputs": [
        {
          "internalType": "uint256",
          "name": "",
          "type": "uint256"
        }
      ],
      "stateMutability": "view",
      "type": "function"
    },
    {
      "inputs": [],
      "name": "midpointRepaymentThreshold",
      "outputs": [
        {
          "internalType": "uint256",
          "name": "",
          "type": "uint256"
        }
      ],
      "stateMutability": "view",
      "type": "function"
    },
    {
      "inputs": [],
      "name": "minimumPoolBalance",
      "outputs": [
        {
          "internalType": "uint256",
          "name": "",
          "type": "uint256"
        }
      ],
      "stateMutability": "view",
      "type": "function"
    },
    {
      "inputs": [],
      "name": "owner",
      "outputs": [
        {
          "internalType": "address",
          "name": "",
          "type": "address"
        }
      ],
      "stateMutability": "view",
      "type": "function"
    },
    {
      "inputs": [],
      "name": "platformFee",
      "outputs": [
        {
          "internalType": "uint256",
          "name": "",
          "type": "uint256"
        }
      ],
      "stateMutability": "view",
      "type": "function"
    },
    {
      "inputs": [
        {
          "internalType": "uint256",
          "name": "loanId",
          "type": "uint256"
        }
      ],
      "name": "repayLoan",
      "outputs": [],
      "stateMutability": "payable",
      "type": "function"
    },
    {
      "inputs": [
        {
          "internalType": "uint256",
          "name": "principal",
          "type": "uint256"
        },
        {
          "internalType": "uint256",
          "name": "interest",
          "type": "uint256"
        },
        {
          "internalType": "uint256",
          "name": "duration",
          "type": "uint256"
        },
        {
          "internalType": "uint256",
          "name": "collateral",
          "type": "uint256"
        }
      ],
      "name": "requestLoan",
      "outputs": [],
      "stateMutability": "payable",
      "type": "function"
    },
    {
      "inputs": [],
      "name": "utilizationRateMultiplier",
      "outputs": [
        {
          "internalType": "uint256",
          "name": "",
          "type": "uint256"
        }
      ],
      "stateMutability": "view",
      "type": "function"
    }
  ],
  "bytecode": "0x608060405260966009556032600a55348015601957600080fd5b50604051610e52380380610e528339810160408190526036916061565b600080546001600160a01b0319163317905560019490945560029290925560035560045560055560a0565b600080600080600060a08688031215607857600080fd5b5050835160208501516040860151606087015160809097015192989197509594509092509050565b610da3806100af6000396000f3fe6080604052600436106100f35760003560e01c80638da5cb5b1161008a578063cc3f4e2011610059578063cc3f4e2014610242578063dfcb48bd14610258578063e1ec3c681461026e578063f1196e161461033457600080fd5b80638da5cb5b146101cb578063ab7b1c8914610203578063afd9276214610216578063bb299a8b1461022c57600080fd5b8063557cdae9116100c6578063557cdae91461016f5780635858224b14610185578063753c7ff9146101a5578063846b909a146101b857600080fd5b80630d63ee1b146100f85780631f5ca1dc1461011a57806326232a2e1461014357806334d9289e14610159575b600080fd5b34801561010457600080fd5b50610118610113366004610c8e565b61034a565b005b34801561012657600080fd5b5061013060015481565b6040519081526020015b60405180910390f35b34801561014f57600080fd5b5061013060025481565b34801561016557600080fd5b5061013060065481565b34801561017b57600080fd5b5061013060095481565b34801561019157600080fd5b506101306101a0366004610c8e565b610548565b6101186101b3366004610ca7565b610593565b6101186101c6366004610c8e565b610798565b3480156101d757600080fd5b506000546101eb906001600160a01b031681565b6040516001600160a01b03909116815260200161013a565b610118610211366004610c8e565b6109f6565b34801561022257600080fd5b5061013060035481565b34801561023857600080fd5b5061013060045481565b34801561024e57600080fd5b5061013060075481565b34801561026457600080fd5b5061013060055481565b34801561027a57600080fd5b506102e3610289366004610c8e565b600b602052600090815260409020805460018201546002830154600384015460048501546005860154600687015460078801546008909801546001600160a01b039788169897909616969495939492939192909160ff1689565b604080516001600160a01b039a8b1681529990981660208a0152968801959095526060870193909352608086019190915260a085015260c084015260e083015215156101008201526101200161013a565b34801561034057600080fd5b50610130600a5481565b6000818152600b60205260409020600881015460ff166103a65760405162461bcd60e51b81526020600482015260126024820152714c6f616e206973206e6f742061637469766560701b60448201526064015b60405180910390fd5b600281600401546103b79190610cef565b81600501546103c69190610d11565b4210156104085760405162461bcd60e51b815260206004820152601060248201526f139bdd081e595d081b5a591c1bda5b9d60821b604482015260640161039d565b600061041383610548565b905060006064600a54836104279190610d2a565b6104319190610cef565b905080836006015410156104ed5760088301805460ff1916905560078301541561049757600183015460078401546040516001600160a01b039092169181156108fc0291906000818181858888f19350505050158015610495573d6000803e3d6000fd5b505b82546001840154604080518781526001600160a01b0393841660208201529290911682820152517fd8488207b46549891c1bb619e37bb6ecc698e50debd01897b961e97c18ae478a9181900360600190a1610542565b82546001840154604080518781526001600160a01b03938416602082015292909116908201527f53cc572a8f433f4aaa7452924a95ae2aecb1aaea1f585b32a3956ae4350e71a5906060015b60405180910390a15b50505050565b6000818152600b6020526040812060038101546002820154839160649161056f9190610d2a565b6105799190610cef565b905080826002015461058b9190610d11565b949350505050565b8034146105f25760405162461bcd60e51b815260206004820152602760248201527f436f6c6c61746572616c20616d6f756e74206d757374206d617463682073656e604482015266742076616c756560c81b606482015260840161039d565b6064600954856106029190610d2a565b61060c9190610cef565b81101561065b5760405162461bcd60e51b815260206004820152601760248201527f436f6c6c61746572616c20696e73756666696369656e74000000000000000000604482015260640161039d565b6006805490600061066b83610d41565b9091555050604080516101208101825233815260006020808301828152838501898152606085018981526080860189815260a0870186815260c0880187815260e089018b81526101008a01898152600680548b52600b9099529a909820985189546001600160a01b03199081166001600160a01b03928316178b55965160018b0180549098169116179095559251600288015590516003870155516004860155516005850155519083015551600782015590516008909101805460ff191691151591909117905561073c8185610d11565b6007600082825461074d9190610d11565b9091555050600654604080519182523360208301528101859052606081018390527f68595dbe887ae7f496f2c88735019a8918919a1decfdee6bdb460480ab87decb90608001610539565b60085460ff16156107e15760405162461bcd60e51b81526020600482015260136024820152721499595b9d1c985b98de4819195d1958dd1959606a1b604482015260640161039d565b6008805460ff191660011781556000828152600b602052604090209081015460ff16156108495760405162461bcd60e51b8152602060048201526016602482015275131bd85b881a5cc8185b1c9958591e48199d5b99195960521b604482015260640161039d565b806002015434146108ac5760405162461bcd60e51b815260206004820152602760248201527f4d7573742070726f7669646520746865206578616374207072696e636970616c60448201526608185b5bdd5b9d60ca1b606482015260840161039d565b6000606460025483600201546108c29190610d2a565b6108cc9190610cef565b905060008183600201546108e09190610d5a565b600180850180546001600160a01b0319163317905542600586015560088501805460ff191690911790556002840154600780549293509091600090610926908490610d5a565b9091555050600080546040516001600160a01b039091169184156108fc02918591818181858888f19350505050158015610964573d6000803e3d6000fd5b5082546040516001600160a01b039091169082156108fc029083906000818181858888f1935050505015801561099e573d6000803e3d6000fd5b50600283015460408051868152336020820152908101919091527fbd7ef6c6281278f6c8ac4ae9ef2f205b52425813c288dd47c377cb6b59c5076e906060015b60405180910390a150506008805460ff191690555050565b6000818152600b602052604090205481906001600160a01b03163314610a5e5760405162461bcd60e51b815260206004820152601e60248201527f4f6e6c7920626f72726f7765722063616e206578656375746520746869730000604482015260640161039d565b60085460ff1615610aa75760405162461bcd60e51b81526020600482015260136024820152721499595b9d1c985b98de4819195d1958dd1959606a1b604482015260640161039d565b6008805460ff191660011781556000838152600b602052604090209081015460ff16610b0a5760405162461bcd60e51b81526020600482015260126024820152714c6f616e206973206e6f742061637469766560701b604482015260640161039d565b34816006016000828254610b1e9190610d11565b9091555060009050610b2f84610548565b905080826006015410610c465760088201805460ff19169055600282015460078054600090610b5f908490610d11565b9091555050600782015415610bfa57815460078301546040516001600160a01b039092169181156108fc0291906000818181858888f19350505050158015610bab573d6000803e3d6000fd5b5081546007830154604080518781526001600160a01b0390931660208401528201527e83f3d3d0a8132e9bf23ae6cde659d5f3963a6973816e144f05bfccef1842799060600160405180910390a15b600682018054600091829055600184015460405191926001600160a01b039091169183156108fc0291849190818181858888f19350505050158015610c43573d6000803e3d6000fd5b50505b8154604080518681526001600160a01b03909216602083015234908201527f512d3e65b3e58c2187bb1872aa435dba5bd09c1c03823ba56ab70aac411e4a21906060016109de565b600060208284031215610ca057600080fd5b5035919050565b60008060008060808587031215610cbd57600080fd5b5050823594602084013594506040840135936060013592509050565b634e487b7160e01b600052601160045260246000fd5b600082610d0c57634e487b7160e01b600052601260045260246000fd5b500490565b80820180821115610d2457610d24610cd9565b92915050565b8082028115828204841417610d2457610d24610cd9565b600060018201610d5357610d53610cd9565b5060010190565b81810381811115610d2457610d24610cd956fea2646970667358221220c4720a7b729b780b33044bde96950e8dfe92b0a155c363cff92e6c7f1e1eb12264736f6c634300081b0033",
  "linkReferences": {},
  "deployedLinkReferences": {}
}