{
  "_format": "hh-sol-artifact-1",
  "contractName": "p2pSmartContract",
  "sourceName": "contracts/p2pSmartContract.sol",
  "abi": [
    {
      "inputs": [
        {
          "internalType": "uint256",
          "name": "_minimumPoolBalance",
          "type": "uint256"
        },
        {
          "internalType": "uint256",
          "name": "_platformFee",
          "type": "uint256"
        },
        {
          "internalType": "uint256",
          "name": "_baseInterestRate",
          "type": "uint256"
        },
        {
          "internalType": "uint256",
          "name": "_utilizationRateMultiplier",
          "type": "uint256"
        },
        {
          "internalType": "uint256",
          "name": "_maxUtilizationRate",
          "type": "uint256"
        },
        {
          "internalType": "address",
          "name": "_priceOracleAddress",
          "type": "address"
        }
      ],
      "stateMutability": "nonpayable",
      "type": "constructor"
    },
    {
      "anonymous": false,
      "inputs": [
        {
          "indexed": false,
          "internalType": "uint256",
          "name": "loanId",
          "type": "uint256"
        },
        {
          "indexed": false,
          "internalType": "address",
          "name": "borrower",
          "type": "address"
        },
        {
          "indexed": false,
          "internalType": "uint256",
          "name": "amount",
          "type": "uint256"
        }
      ],
      "name": "CollateralReturned",
      "type": "event"
    },
    {
      "anonymous": false,
      "inputs": [
        {
          "indexed": false,
          "internalType": "uint256",
          "name": "loanId",
          "type": "uint256"
        },
        {
          "indexed": false,
          "internalType": "address",
          "name": "borrower",
          "type": "address"
        },
        {
          "indexed": false,
          "internalType": "address",
          "name": "lender",
          "type": "address"
        }
      ],
      "name": "LoanDefaulted",
      "type": "event"
    },
    {
      "anonymous": false,
      "inputs": [
        {
          "indexed": false,
          "internalType": "uint256",
          "name": "loanId",
          "type": "uint256"
        },
        {
          "indexed": false,
          "internalType": "address",
          "name": "lender",
          "type": "address"
        },
        {
          "indexed": false,
          "internalType": "uint256",
          "name": "amount",
          "type": "uint256"
        }
      ],
      "name": "LoanFunded",
      "type": "event"
    },
    {
      "anonymous": false,
      "inputs": [
        {
          "indexed": false,
          "internalType": "uint256",
          "name": "loanId",
          "type": "uint256"
        },
        {
          "indexed": false,
          "internalType": "address",
          "name": "borrower",
          "type": "address"
        },
        {
          "indexed": false,
          "internalType": "address",
          "name": "lender",
          "type": "address"
        }
      ],
      "name": "LoanOnTrack",
      "type": "event"
    },
    {
      "anonymous": false,
      "inputs": [
        {
          "indexed": false,
          "internalType": "uint256",
          "name": "loanId",
          "type": "uint256"
        },
        {
          "indexed": false,
          "internalType": "address",
          "name": "borrower",
          "type": "address"
        },
        {
          "indexed": false,
          "internalType": "uint256",
          "name": "amount",
          "type": "uint256"
        }
      ],
      "name": "LoanRepaid",
      "type": "event"
    },
    {
      "anonymous": false,
      "inputs": [
        {
          "indexed": false,
          "internalType": "uint256",
          "name": "loanId",
          "type": "uint256"
        },
        {
          "indexed": false,
          "internalType": "address",
          "name": "borrower",
          "type": "address"
        },
        {
          "indexed": false,
          "internalType": "uint256",
          "name": "principal",
          "type": "uint256"
        },
        {
          "indexed": false,
          "internalType": "uint256",
          "name": "duration",
          "type": "uint256"
        }
      ],
      "name": "LoanRequested",
      "type": "event"
    },
    {
      "inputs": [],
      "name": "baseInterestRate",
      "outputs": [
        {
          "internalType": "uint256",
          "name": "",
          "type": "uint256"
        }
      ],
      "stateMutability": "view",
      "type": "function"
    },
    {
      "inputs": [
        {
          "internalType": "uint256",
          "name": "loanId",
          "type": "uint256"
        }
      ],
      "name": "calculateTotalRepayment",
      "outputs": [
        {
          "internalType": "uint256",
          "name": "",
          "type": "uint256"
        }
      ],
      "stateMutability": "view",
      "type": "function"
    },
    {
      "inputs": [
        {
          "internalType": "uint256",
          "name": "loanId",
          "type": "uint256"
        }
      ],
      "name": "checkMidpoint",
      "outputs": [],
      "stateMutability": "nonpayable",
      "type": "function"
    },
    {
      "inputs": [
        {
          "internalType": "uint256",
          "name": "loanId",
          "type": "uint256"
        }
      ],
      "name": "fundLoan",
      "outputs": [],
      "stateMutability": "payable",
      "type": "function"
    },
    {
      "inputs": [],
      "name": "liquidityBuffer",
      "outputs": [
        {
          "internalType": "uint256",
          "name": "",
          "type": "uint256"
        }
      ],
      "stateMutability": "view",
      "type": "function"
    },
    {
      "inputs": [],
      "name": "loanCounter",
      "outputs": [
        {
          "internalType": "uint256",
          "name": "",
          "type": "uint256"
        }
      ],
      "stateMutability": "view",
      "type": "function"
    },
    {
      "inputs": [
        {
          "internalType": "uint256",
          "name": "",
          "type": "uint256"
        }
      ],
      "name": "loans",
      "outputs": [
        {
          "internalType": "address",
          "name": "borrower",
          "type": "address"
        },
        {
          "internalType": "address",
          "name": "lender",
          "type": "address"
        },
        {
          "internalType": "uint256",
          "name": "principal",
          "type": "uint256"
        },
        {
          "internalType": "uint256",
          "name": "interest",
          "type": "uint256"
        },
        {
          "internalType": "uint256",
          "name": "duration",
          "type": "uint256"
        },
        {
          "internalType": "uint256",
          "name": "startTime",
          "type": "uint256"
        },
        {
          "internalType": "uint256",
          "name": "repaidAmount",
          "type": "uint256"
        },
        {
          "internalType": "uint256",
          "name": "collateral",
          "type": "uint256"
        },
        {
          "internalType": "bool",
          "name": "isActive",
          "type": "bool"
        }
      ],
      "stateMutability": "view",
      "type": "function"
    },
    {
      "inputs": [],
      "name": "maxUtilizationRate",
      "outputs": [
        {
          "internalType": "uint256",
          "name": "",
          "type": "uint256"
        }
      ],
      "stateMutability": "view",
      "type": "function"
    },
    {
      "inputs": [],
      "name": "minimumPoolBalance",
      "outputs": [
        {
          "internalType": "uint256",
          "name": "",
          "type": "uint256"
        }
      ],
      "stateMutability": "view",
      "type": "function"
    },
    {
      "inputs": [],
      "name": "owner",
      "outputs": [
        {
          "internalType": "address",
          "name": "",
          "type": "address"
        }
      ],
      "stateMutability": "view",
      "type": "function"
    },
    {
      "inputs": [],
      "name": "platformFee",
      "outputs": [
        {
          "internalType": "uint256",
          "name": "",
          "type": "uint256"
        }
      ],
      "stateMutability": "view",
      "type": "function"
    },
    {
      "inputs": [],
      "name": "priceOracleAddress",
      "outputs": [
        {
          "internalType": "address",
          "name": "",
          "type": "address"
        }
      ],
      "stateMutability": "view",
      "type": "function"
    },
    {
      "inputs": [
        {
          "internalType": "uint256",
          "name": "loanId",
          "type": "uint256"
        }
      ],
      "name": "repayLoan",
      "outputs": [],
      "stateMutability": "payable",
      "type": "function"
    },
    {
      "inputs": [
        {
          "internalType": "uint256",
          "name": "principal",
          "type": "uint256"
        },
        {
          "internalType": "uint256",
          "name": "interest",
          "type": "uint256"
        },
        {
          "internalType": "uint256",
          "name": "duration",
          "type": "uint256"
        },
        {
          "internalType": "uint256",
          "name": "collateral",
          "type": "uint256"
        }
      ],
      "name": "requestLoan",
      "outputs": [],
      "stateMutability": "payable",
      "type": "function"
    },
    {
      "inputs": [],
      "name": "utilizationRateMultiplier",
      "outputs": [
        {
          "internalType": "uint256",
          "name": "",
          "type": "uint256"
        }
      ],
      "stateMutability": "view",
      "type": "function"
    }
  ],
  "bytecode": "0x6080604052348015600f57600080fd5b50604051610cd4380380610cd4833981016040819052602c916072565b60008054336001600160a01b031991821617909155600196909655600294909455600392909255600455600555600680549092166001600160a01b0390911617905560d4565b60008060008060008060c08789031215608a57600080fd5b86516020880151604089015160608a015160808b015160a08c0151949a50929850909650945092506001600160a01b038116811460c657600080fd5b809150509295509295509295565b610bf1806100e36000396000f3fe6080604052600436106100e85760003560e01c8063846b909a1161008a578063bb299a8b11610059578063bb299a8b1461022b578063cc3f4e2014610241578063dfcb48bd14610257578063e1ec3c681461026d57600080fd5b8063846b909a146101cf5780638da5cb5b146101e2578063ab7b1c8914610202578063afd927621461021557600080fd5b80632bc51c6d116100c65780632bc51c6d1461014e57806334d9289e146101865780635858224b1461019c578063753c7ff9146101bc57600080fd5b80630d63ee1b146100ed5780631f5ca1dc1461010f57806326232a2e14610138575b600080fd5b3480156100f957600080fd5b5061010d610108366004610adc565b610333565b005b34801561011b57600080fd5b5061012560015481565b6040519081526020015b60405180910390f35b34801561014457600080fd5b5061012560025481565b34801561015a57600080fd5b5060065461016e906001600160a01b031681565b6040516001600160a01b03909116815260200161012f565b34801561019257600080fd5b5061012560075481565b3480156101a857600080fd5b506101256101b7366004610adc565b61053d565b61010d6101ca366004610af5565b610588565b61010d6101dd366004610adc565b61071c565b3480156101ee57600080fd5b5060005461016e906001600160a01b031681565b61010d610210366004610adc565b6108a9565b34801561022157600080fd5b5061012560035481565b34801561023757600080fd5b5061012560045481565b34801561024d57600080fd5b5061012560085481565b34801561026357600080fd5b5061012560055481565b34801561027957600080fd5b506102e2610288366004610adc565b6009602052600090815260409020805460018201546002830154600384015460048501546005860154600687015460078801546008909801546001600160a01b039788169897909616969495939492939192909160ff1689565b604080516001600160a01b039a8b1681529990981660208a0152968801959095526060870193909352608086019190915260a085015260c084015260e083015215156101008201526101200161012f565b6000818152600960205260409020600881015460ff1661038f5760405162461bcd60e51b81526020600482015260126024820152714c6f616e206973206e6f742061637469766560701b60448201526064015b60405180910390fd5b600281600401546103a09190610b3d565b81600501546103af9190610b5f565b4210156103f15760405162461bcd60e51b815260206004820152601060248201526f139bdd081e595d081b5a591c1bda5b9d60821b6044820152606401610386565b6000600260648360030154846002015461040b9190610b78565b6104159190610b3d565b83600201546104249190610b5f565b61042e9190610b3d565b905080826006015410156104ed5760088201805460ff1916905560078201541561049457600182015460078301546040516001600160a01b039092169181156108fc0291906000818181858888f19350505050158015610492573d6000803e3d6000fd5b505b81546001830154604080518681526001600160a01b03938416602082015292909116908201527fd8488207b46549891c1bb619e37bb6ecc698e50debd01897b961e97c18ae478a906060015b60405180910390a1505050565b81546001830154604080518681526001600160a01b03938416602082015292909116908201527f53cc572a8f433f4aaa7452924a95ae2aecb1aaea1f585b32a3956ae4350e71a5906060016104e0565b60008181526009602052604081206003810154600282015483916064916105649190610b78565b61056e9190610b3d565b90508082600201546105809190610b5f565b949350505050565b8034146105e25760405162461bcd60e51b815260206004820152602260248201527f436f6c6c61746572616c20616d6f756e74206d7573742062652070726f766964604482015261195960f21b6064820152608401610386565b600780549060006105f283610b8f565b9091555050604080516101208101825233815260006020808301828152838501898152606085018981526080860189815260a0870186815260c0880187815260e089018b81526101008a01898152600780548b5260099099529a892099518a546001600160a01b03199081166001600160a01b03928316178c55975160018c0180549099169116179096559351600289015591516003880155516004870155516005860155516006850155519083015591516008918201805460ff191691151591909117905580548692906106c8908490610b5f565b9091555050600754604080519182523360208301528101859052606081018390527f68595dbe887ae7f496f2c88735019a8918919a1decfdee6bdb460480ab87decb9060800160405180910390a150505050565b600081815260096020526040902060088101546001919060ff161561077c5760405162461bcd60e51b8152602060048201526016602482015275131bd85b881a5cc8185b1c9958591e48199d5b99195960521b6044820152606401610386565b806002015434146107df5760405162461bcd60e51b815260206004820152602760248201527f4d7573742070726f7669646520746865206578616374207072696e636970616c60448201526608185b5bdd5b9d60ca1b6064820152608401610386565b600180820180546001600160a01b031916331790554260058301556008808301805460ff191690921790915560028201548154909190600090610823908490610ba8565b9091555050805460028201546040516001600160a01b039092169181156108fc0291906000818181858888f19350505050158015610865573d6000803e3d6000fd5b50600281015460408051858152336020820152908101919091527fbd7ef6c6281278f6c8ac4ae9ef2f205b52425813c288dd47c377cb6b59c5076e906060016104e0565b60008181526009602052604090205481906001600160a01b031633146109115760405162461bcd60e51b815260206004820152601e60248201527f4f6e6c7920626f72726f7765722063616e2065786563757465207468697300006044820152606401610386565b600082815260096020526040902060088101546001919060ff1661096c5760405162461bcd60e51b81526020600482015260126024820152714c6f616e206973206e6f742061637469766560701b6044820152606401610386565b348160060160008282546109809190610b5f565b90915550600090506109918561053d565b905080826006015410610a8c5760088201805460ff19169055600782015415610a4057815460078301546040516001600160a01b039092169181156108fc0291906000818181858888f193505050501580156109f1573d6000803e3d6000fd5b5081546007830154604080518881526001600160a01b0390931660208401528201527e83f3d3d0a8132e9bf23ae6cde659d5f3963a6973816e144f05bfccef1842799060600160405180910390a15b600682018054600091829055600184015460405191926001600160a01b039091169183156108fc0291849190818181858888f19350505050158015610a89573d6000803e3d6000fd5b50505b8154604080518781526001600160a01b0390921660208301523482820152517f512d3e65b3e58c2187bb1872aa435dba5bd09c1c03823ba56ab70aac411e4a219181900360600190a15050505050565b600060208284031215610aee57600080fd5b5035919050565b60008060008060808587031215610b0b57600080fd5b5050823594602084013594506040840135936060013592509050565b634e487b7160e01b600052601160045260246000fd5b600082610b5a57634e487b7160e01b600052601260045260246000fd5b500490565b80820180821115610b7257610b72610b27565b92915050565b8082028115828204841417610b7257610b72610b27565b600060018201610ba157610ba1610b27565b5060010190565b81810381811115610b7257610b72610b2756fea2646970667358221220e4e7088dedf818a0ccbe2692a9b1464fee6f0bdbd8ca2a1ef3135ef8912ed81664736f6c634300081b0033",
  "linkReferences": {},
  "deployedLinkReferences": {}
}